{
    "txid": "a293f0248c8a7312159b40ffb78d325a7d88b53f37b335f731789c8c1ee3763c",
    "hash": "a293f0248c8a7312159b40ffb78d325a7d88b53f37b335f731789c8c1ee3763c",
    "version": 2,
    "size": 85,
    "vsize": 85,
    "locktime": 0,
    "vin": [
        {
            "txid": "69e9c12d30a6cd598a31ddfcaabeb9d9f0baf8938bf0ba6610beb04f589cc5ef",
            "vout": 0,
            "scriptSig": {
                "asm": "",
                "hex": ""
            },
            "sequence": 4294967293
        }
    ],
    "vout": [
        {
            "value": 0.00200000,
            "n": 0,
            "scriptPubKey": {
                "asm": "OP_DUP OP_HASH160 9ec0ea84f5bee5f9cd429fc240c2b1fce3d9e6ab OP_EQUALVERIFY OP_CHECKSIG",
                "hex": "76a9149ec0ea84f5bee5f9cd429fc240c2b1fce3d9e6ab88ac",
                "reqSigs": 1,
                "type": "pubkeyhash",
                "addresses": [
                    "Ro6CvyjAhZeazmDMpZKK5hrWXp2jYHEFPN"
                ]
            }
        }
    ],
    "hex": "0200000001efc59c584fb0be1066baf08b93f8baf0d9b9beaafcdd318a59cda6302dc1e9690000000000fdffffff01400d0300000000001976a9149ec0ea84f5bee5f9cd429fc240c2b1fce3d9e6ab88ac00000000"
}
