{
    "txid": "b499c48227a5531293fa25344200a75f6aa40205c6dbdd6a00352c04358bdb54",
    "hash": "b499c48227a5531293fa25344200a75f6aa40205c6dbdd6a00352c04358bdb54",
    "version": 1,
    "size": 176,
    "vsize": 176,
    "locktime": 0,
    "vin": [
        {
            "txid": "69e9c12d30a6cd598a31ddfcaabeb9d9f0baf8938bf0ba6610beb04f589cc5ef",
            "vout": 0,
            "scriptSig": {
                "asm": "",
                "hex": ""
            },
            "sequence": 4294967295
        }
    ],
    "vout": [
        {
            "value": 0.00200000,
            "n": 0,
            "scriptPubKey": {
                "asm": "OP_DUP OP_HASH160 95b7a86e86e41514944424c808fef705555c94ac OP_EQUALVERIFY OP_CHECKSIG",
                "hex": "76a91495b7a86e86e41514944424c808fef705555c94ac88ac",
                "reqSigs": 1,
                "type": "pubkeyhash",
                "addresses": [
                    "RnGRkz4BkTZiBaNMssJGWiow1dc3VFAVTC"
                ]
            }
        },
        {
            "value": 4.00000000,
            "n": 1,
            "scriptPubKey": {
                "asm": "OP_RETURN 54686973204f505f52455455524e207472616e73616374696f6e206f7574707574207761732063726561746564206279206d6f646966696564206372656174657261777472616e73616374696f6e2e",
                "hex": "6a4c4f54686973204f505f52455455524e207472616e73616374696f6e206f7574707574207761732063726561746564206279206d6f646966696564206372656174657261777472616e73616374696f6e2e",
                "type": "nulldata"
            }
        }
    ],
    "hex": "0100000001efc59c584fb0be1066baf08b93f8baf0d9b9beaafcdd318a59cda6302dc1e9690000000000ffffffff02400d0300000000001976a91495b7a86e86e41514944424c808fef705555c94ac88ac0084d71700000000526a4c4f54686973204f505f52455455524e207472616e73616374696f6e206f7574707574207761732063726561746564206279206d6f646966696564206372656174657261777472616e73616374696f6e2e00000000"
}
