{
    "txid": "b53849510128c8ead416624802bad72f8daf24b38a08527220958e84cea4adba",
    "hash": "b53849510128c8ead416624802bad72f8daf24b38a08527220958e84cea4adba",
    "version": 1,
    "size": 85,
    "vsize": 85,
    "locktime": 0,
    "vin": [
        {
            "txid": "6c2789243608b46f750f49ff24f6f79a78c3010f7e56951e045e5b7ea5d07bf7",
            "vout": 0,
            "scriptSig": {
                "asm": "",
                "hex": ""
            },
            "sequence": 4294967295
        }
    ],
    "vout": [
        {
            "value": 0.00100000,
            "n": 0,
            "scriptPubKey": {
                "asm": "OP_DUP OP_HASH160 6cc3fc8634b8e85554440423a2a46eab9eb03f18 OP_EQUALVERIFY OP_CHECKSIG",
                "hex": "76a9146cc3fc8634b8e85554440423a2a46eab9eb03f1888ac",
                "reqSigs": 1,
                "type": "pubkeyhash",
                "addresses": [
                    "RiXtpiafgEC9UkCvcNL3yXwpnLM3B1G2Nz"
                ]
            }
        }
    ],
    "hex": "0100000001f77bd0a57e5b5e041e95567e0f01c3789af7f624ff490f756fb408362489276c0000000000ffffffff01a0860100000000001976a9146cc3fc8634b8e85554440423a2a46eab9eb03f1888ac00000000"
}
